{
  "contractName": "EventTickets",
  "abi": [
    {
      "constant": true,
      "inputs": [],
      "name": "getEventIdsForIssuer",
      "outputs": [
        {
          "name": "issuerEvents",
          "type": "uint256[]"
        }
      ],
      "payable": false,
      "stateMutability": "view",
      "type": "function"
    },
    {
      "constant": false,
      "inputs": [
        {
          "name": "newIssuer",
          "type": "address"
        }
      ],
      "name": "addIssuer",
      "outputs": [],
      "payable": false,
      "stateMutability": "nonpayable",
      "type": "function"
    },
    {
      "constant": true,
      "inputs": [
        {
          "name": "",
          "type": "uint256"
        }
      ],
      "name": "tickets",
      "outputs": [
        {
          "name": "ticketowner",
          "type": "address"
        },
        {
          "name": "eventId",
          "type": "uint256"
        },
        {
          "name": "ticketSetId",
          "type": "uint256"
        },
        {
          "name": "redeemed",
          "type": "bool"
        },
        {
          "name": "userPic",
          "type": "string"
        }
      ],
      "payable": false,
      "stateMutability": "view",
      "type": "function"
    },
    {
      "constant": false,
      "inputs": [
        {
          "name": "ticketId",
          "type": "uint256"
        },
        {
          "name": "userPicUrl",
          "type": "string"
        }
      ],
      "name": "redeemTicket",
      "outputs": [],
      "payable": false,
      "stateMutability": "nonpayable",
      "type": "function"
    },
    {
      "constant": true,
      "inputs": [],
      "name": "isIssuer",
      "outputs": [
        {
          "name": "isthey",
          "type": "bool"
        }
      ],
      "payable": false,
      "stateMutability": "view",
      "type": "function"
    },
    {
      "constant": true,
      "inputs": [
        {
          "name": "id",
          "type": "uint256"
        }
      ],
      "name": "getEventDetailById",
      "outputs": [
        {
          "name": "",
          "type": "address"
        },
        {
          "name": "",
          "type": "string"
        },
        {
          "name": "",
          "type": "string"
        },
        {
          "name": "",
          "type": "string"
        },
        {
          "name": "",
          "type": "uint256"
        },
        {
          "name": "",
          "type": "uint256"
        },
        {
          "name": "",
          "type": "string"
        }
      ],
      "payable": false,
      "stateMutability": "view",
      "type": "function"
    },
    {
      "constant": true,
      "inputs": [
        {
          "name": "eventId",
          "type": "uint256"
        },
        {
          "name": "ticketSetId",
          "type": "uint256"
        }
      ],
      "name": "getTicketSetInfoById",
      "outputs": [
        {
          "name": "",
          "type": "string"
        },
        {
          "name": "",
          "type": "string"
        },
        {
          "name": "",
          "type": "uint256"
        },
        {
          "name": "",
          "type": "uint256"
        },
        {
          "name": "",
          "type": "uint256"
        }
      ],
      "payable": false,
      "stateMutability": "view",
      "type": "function"
    },
    {
      "constant": true,
      "inputs": [],
      "name": "owner",
      "outputs": [
        {
          "name": "",
          "type": "address"
        }
      ],
      "payable": false,
      "stateMutability": "view",
      "type": "function"
    },
    {
      "constant": false,
      "inputs": [
        {
          "name": "ticketId",
          "type": "uint256"
        },
        {
          "name": "recipient",
          "type": "address"
        }
      ],
      "name": "reassignTicketToNewHolder",
      "outputs": [],
      "payable": false,
      "stateMutability": "nonpayable",
      "type": "function"
    },
    {
      "constant": true,
      "inputs": [],
      "name": "confirmMessageSender",
      "outputs": [
        {
          "name": "sender",
          "type": "address"
        }
      ],
      "payable": false,
      "stateMutability": "view",
      "type": "function"
    },
    {
      "constant": true,
      "inputs": [
        {
          "name": "ticketId",
          "type": "uint256"
        }
      ],
      "name": "getTicketOwnerById",
      "outputs": [
        {
          "name": "ticketOwner",
          "type": "address"
        }
      ],
      "payable": false,
      "stateMutability": "view",
      "type": "function"
    },
    {
      "constant": true,
      "inputs": [
        {
          "name": "ticketId",
          "type": "uint256"
        }
      ],
      "name": "getTicketStateById",
      "outputs": [
        {
          "name": "status",
          "type": "string"
        }
      ],
      "payable": false,
      "stateMutability": "view",
      "type": "function"
    },
    {
      "constant": false,
      "inputs": [
        {
          "name": "slug",
          "type": "string"
        },
        {
          "name": "artist",
          "type": "string"
        },
        {
          "name": "location",
          "type": "string"
        },
        {
          "name": "description",
          "type": "string"
        },
        {
          "name": "date",
          "type": "uint256"
        },
        {
          "name": "doors",
          "type": "uint256"
        },
        {
          "name": "startTime",
          "type": "uint256"
        },
        {
          "name": "photoUrl",
          "type": "string"
        }
      ],
      "name": "defineEvent",
      "outputs": [
        {
          "name": "eventId",
          "type": "uint256"
        }
      ],
      "payable": false,
      "stateMutability": "nonpayable",
      "type": "function"
    },
    {
      "constant": true,
      "inputs": [
        {
          "name": "ticketId",
          "type": "uint256"
        }
      ],
      "name": "getTicketInfoById",
      "outputs": [
        {
          "name": "",
          "type": "address"
        },
        {
          "name": "",
          "type": "uint256"
        },
        {
          "name": "",
          "type": "uint256"
        },
        {
          "name": "",
          "type": "bool"
        },
        {
          "name": "",
          "type": "string"
        }
      ],
      "payable": false,
      "stateMutability": "view",
      "type": "function"
    },
    {
      "constant": false,
      "inputs": [
        {
          "name": "eventId",
          "type": "uint256"
        },
        {
          "name": "ticketSetId",
          "type": "uint256"
        },
        {
          "name": "numberOfSeats",
          "type": "uint256"
        },
        {
          "name": "recipient",
          "type": "address"
        }
      ],
      "name": "sellTicketsToRecipient",
      "outputs": [],
      "payable": false,
      "stateMutability": "nonpayable",
      "type": "function"
    },
    {
      "constant": true,
      "inputs": [
        {
          "name": "holder",
          "type": "address"
        }
      ],
      "name": "getTicketIdsByHolderAddress",
      "outputs": [
        {
          "name": "ticketIds",
          "type": "uint256[]"
        }
      ],
      "payable": false,
      "stateMutability": "view",
      "type": "function"
    },
    {
      "constant": false,
      "inputs": [
        {
          "name": "eventId",
          "type": "uint256"
        },
        {
          "name": "ticketSetSlug",
          "type": "string"
        },
        {
          "name": "description",
          "type": "string"
        },
        {
          "name": "price",
          "type": "uint256"
        },
        {
          "name": "resalePrice",
          "type": "uint256"
        },
        {
          "name": "quantity",
          "type": "uint256"
        }
      ],
      "name": "defineTicketSet",
      "outputs": [],
      "payable": false,
      "stateMutability": "nonpayable",
      "type": "function"
    },
    {
      "constant": true,
      "inputs": [
        {
          "name": "eventId",
          "type": "uint256"
        },
        {
          "name": "ticketSetId",
          "type": "uint256"
        },
        {
          "name": "numberOfSeats",
          "type": "uint256"
        }
      ],
      "name": "checkAvailability",
      "outputs": [
        {
          "name": "available",
          "type": "bool"
        }
      ],
      "payable": false,
      "stateMutability": "view",
      "type": "function"
    }
  ],
  "bytecode": "0x60606040527390f8bf6a479f320ead074411a4b0e7944ea8c9c16000806101000a81548173ffffffffffffffffffffffffffffffffffffffff021916908373ffffffffffffffffffffffffffffffffffffffff160217905550341561006357600080fd5b61291b806100726000396000f3006060604052600436106100fc576000357c0100000000000000000000000000000000000000000000000000000000900463ffffffff1680630e376b591461010157806320694db01461016b57806350b44712146101a457806351a2c4e3146102a957806386af78fa1461030f57806389155f7f1461033c5780638c29e8831461055d5780638da5cb5b14610683578063a1348c0b146106d8578063b6883ec21461071a578063beac36c61461076f578063cbed7546146107d2578063cc2c25461461086e578063ee19fa9314610a06578063f1163efd14610aee578063f744f28314610b42578063fa7bb5fb14610bd0578063ffaae07a14610c94575b600080fd5b341561010c57600080fd5b610114610ce1565b6040518080602001828103825283818151815260200191508051906020019060200280838360005b8381101561015757808201518184015260208101905061013c565b505050509050019250505060405180910390f35b341561017657600080fd5b6101a2600480803573ffffffffffffffffffffffffffffffffffffffff16906020019091905050610e38565b005b34156101af57600080fd5b6101c56004808035906020019091905050610f4e565b604051808673ffffffffffffffffffffffffffffffffffffffff1673ffffffffffffffffffffffffffffffffffffffff16815260200185815260200184815260200183151515158152602001806020018281038252838181546001816001161561010002031660029004815260200191508054600181600116156101000203166002900480156102965780601f1061026b57610100808354040283529160200191610296565b820191906000526020600020905b81548152906001019060200180831161027957829003601f168201915b5050965050505050505060405180910390f35b34156102b457600080fd5b61030d600480803590602001909190803590602001908201803590602001908080601f01602080910402602001604051908101604052809392919081815260200183838082843782019150505050505091905050610fb0565b005b341561031a57600080fd5b6103226110b4565b604051808215151515815260200191505060405180910390f35b341561034757600080fd5b61035d600480803590602001909190505061117a565b604051808873ffffffffffffffffffffffffffffffffffffffff1673ffffffffffffffffffffffffffffffffffffffff1681526020018060200180602001806020018781526020018681526020018060200185810385528b818151815260200191508051906020019080838360005b838110156103e75780820151818401526020810190506103cc565b50505050905090810190601f1680156104145780820380516001836020036101000a031916815260200191505b5085810384528a818151815260200191508051906020019080838360005b8381101561044d578082015181840152602081019050610432565b50505050905090810190601f16801561047a5780820380516001836020036101000a031916815260200191505b50858103835289818151815260200191508051906020019080838360005b838110156104b3578082015181840152602081019050610498565b50505050905090810190601f1680156104e05780820380516001836020036101000a031916815260200191505b50858103825286818151815260200191508051906020019080838360005b838110156105195780820151818401526020810190506104fe565b50505050905090810190601f1680156105465780820380516001836020036101000a031916815260200191505b509b50505050505050505050505060405180910390f35b341561056857600080fd5b61058760048080359060200190919080359060200190919050506114e5565b604051808060200180602001868152602001858152602001848152602001838103835288818151815260200191508051906020019080838360005b838110156105dd5780820151818401526020810190506105c2565b50505050905090810190601f16801561060a5780820380516001836020036101000a031916815260200191505b50838103825287818151815260200191508051906020019080838360005b83811015610643578082015181840152602081019050610628565b50505050905090810190601f1680156106705780820380516001836020036101000a031916815260200191505b5097505050505050505060405180910390f35b341561068e57600080fd5b61069661171b565b604051808273ffffffffffffffffffffffffffffffffffffffff1673ffffffffffffffffffffffffffffffffffffffff16815260200191505060405180910390f35b34156106e357600080fd5b610718600480803590602001909190803573ffffffffffffffffffffffffffffffffffffffff16906020019091905050611740565b005b341561072557600080fd5b61072d6119be565b604051808273ffffffffffffffffffffffffffffffffffffffff1673ffffffffffffffffffffffffffffffffffffffff16815260200191505060405180910390f35b341561077a57600080fd5b61079060048080359060200190919050506119c6565b604051808273ffffffffffffffffffffffffffffffffffffffff1673ffffffffffffffffffffffffffffffffffffffff16815260200191505060405180910390f35b34156107dd57600080fd5b6107f36004808035906020019091905050611a06565b6040518080602001828103825283818151815260200191508051906020019080838360005b83811015610833578082015181840152602081019050610818565b50505050905090810190601f1680156108605780820380516001836020036101000a031916815260200191505b509250505060405180910390f35b341561087957600080fd5b6109f0600480803590602001908201803590602001908080601f0160208091040260200160405190810160405280939291908181526020018383808284378201915050505050509190803590602001908201803590602001908080601f0160208091040260200160405190810160405280939291908181526020018383808284378201915050505050509190803590602001908201803590602001908080601f0160208091040260200160405190810160405280939291908181526020018383808284378201915050505050509190803590602001908201803590602001908080601f0160208091040260200160405190810160405280939291908181526020018383808284378201915050505050509190803590602001909190803590602001909190803590602001909190803590602001908201803590602001908080601f01602080910402602001604051908101604052809392919081815260200183838082843782019150505050505091905050611bba565b6040518082815260200191505060405180910390f35b3415610a1157600080fd5b610a276004808035906020019091905050611e7e565b604051808673ffffffffffffffffffffffffffffffffffffffff1673ffffffffffffffffffffffffffffffffffffffff1681526020018581526020018481526020018315151515815260200180602001828103825283818151815260200191508051906020019080838360005b83811015610aaf578082015181840152602081019050610a94565b50505050905090810190601f168015610adc5780820380516001836020036101000a031916815260200191505b50965050505050505060405180910390f35b3415610af957600080fd5b610b40600480803590602001909190803590602001909190803590602001909190803573ffffffffffffffffffffffffffffffffffffffff16906020019091905050611fda565b005b3415610b4d57600080fd5b610b79600480803573ffffffffffffffffffffffffffffffffffffffff16906020019091905050612433565b6040518080602001828103825283818151815260200191508051906020019060200280838360005b83811015610bbc578082015181840152602081019050610ba1565b505050509050019250505060405180910390f35b3415610bdb57600080fd5b610c92600480803590602001909190803590602001908201803590602001908080601f0160208091040260200160405190810160405280939291908181526020018383808284378201915050505050509190803590602001908201803590602001908080601f016020809104026020016040519081016040528093929190818152602001838380828437820191505050505050919080359060200190919080359060200190919080359060200190919050506124d0565b005b3415610c9f57600080fd5b610cc76004808035906020019091908035906020019091908035906020019091905050612640565b604051808215151515815260200191505060405180910390f35b610ce9612679565b60011515600160003373ffffffffffffffffffffffffffffffffffffffff1673ffffffffffffffffffffffffffffffffffffffff16815260200190815260200160002060030160009054906101000a900460ff1615151480610d9757503373ffffffffffffffffffffffffffffffffffffffff166000809054906101000a900473ffffffffffffffffffffffffffffffffffffffff1673ffffffffffffffffffffffffffffffffffffffff16145b1515610da257600080fd5b600160003373ffffffffffffffffffffffffffffffffffffffff1673ffffffffffffffffffffffffffffffffffffffff168152602001908152602001600020600401805480602002602001604051908101604052809291908181526020018280548015610e2e57602002820191906000526020600020905b815481526020019060010190808311610e1a575b5050505050905090565b6000809054906101000a900473ffffffffffffffffffffffffffffffffffffffff1673ffffffffffffffffffffffffffffffffffffffff163373ffffffffffffffffffffffffffffffffffffffff161480610ee6575060011515600160003373ffffffffffffffffffffffffffffffffffffffff1673ffffffffffffffffffffffffffffffffffffffff16815260200190815260200160002060030160009054906101000a900460ff161515145b1515610ef157600080fd5b60018060008373ffffffffffffffffffffffffffffffffffffffff1673ffffffffffffffffffffffffffffffffffffffff16815260200190815260200160002060030160006101000a81548160ff02191690831515021790555050565b60036020528060005260406000206000915090508060000160009054906101000a900473ffffffffffffffffffffffffffffffffffffffff16908060010154908060020154908060030160009054906101000a900460ff169080600401905085565b6003600083815260200190815260200160002060000160009054906101000a900473ffffffffffffffffffffffffffffffffffffffff1673ffffffffffffffffffffffffffffffffffffffff163373ffffffffffffffffffffffffffffffffffffffff1614151561102057600080fd5b600015156003600084815260200190815260200160002060030160009054906101000a900460ff16151514151561105657600080fd5b60016003600084815260200190815260200160002060030160006101000a81548160ff021916908315150217905550806003600084815260200190815260200160002060040190805190602001906110af92919061268d565b505050565b600060011515600160003373ffffffffffffffffffffffffffffffffffffffff1673ffffffffffffffffffffffffffffffffffffffff16815260200190815260200160002060030160009054906101000a900460ff161515148061116457506000809054906101000a900473ffffffffffffffffffffffffffffffffffffffff1673ffffffffffffffffffffffffffffffffffffffff163373ffffffffffffffffffffffffffffffffffffffff16145b156111725760019050611177565b600090505b90565b600061118461270d565b61118c61270d565b61119461270d565b60008061119f61270d565b6005600089815260200190815260200160002060010160009054906101000a900473ffffffffffffffffffffffffffffffffffffffff16600560008a8152602001908152602001600020600201600560008b8152602001908152602001600020600301600560008c8152602001908152602001600020600401600560008d815260200190815260200160002060060154600560008e815260200190815260200160002060070154600560008f8152602001908152602001600020600901858054600181600116156101000203166002900480601f0160208091040260200160405190810160405280929190818152602001828054600181600116156101000203166002900480156112f15780601f106112c6576101008083540402835291602001916112f1565b820191906000526020600020905b8154815290600101906020018083116112d457829003601f168201915b50505050509550848054600181600116156101000203166002900480601f01602080910402602001604051908101604052809291908181526020018280546001816001161561010002031660029004801561138d5780601f106113625761010080835404028352916020019161138d565b820191906000526020600020905b81548152906001019060200180831161137057829003601f168201915b50505050509450838054600181600116156101000203166002900480601f0160208091040260200160405190810160405280929190818152602001828054600181600116156101000203166002900480156114295780601f106113fe57610100808354040283529160200191611429565b820191906000526020600020905b81548152906001019060200180831161140c57829003601f168201915b50505050509350808054600181600116156101000203166002900480601f0160208091040260200160405190810160405280929190818152602001828054600181600116156101000203166002900480156114c55780601f1061149a576101008083540402835291602001916114c5565b820191906000526020600020905b8154815290600101906020018083116114a857829003601f168201915b505050505090509650965096509650965096509650919395979092949650565b6114ed61270d565b6114f561270d565b600080600060056000888152602001908152602001600020600b01600087815260200190815260200160002060000160056000898152602001908152602001600020600b016000888152602001908152602001600020600101600560008a8152602001908152602001600020600b01600089815260200190815260200160002060020154600560008b8152602001908152602001600020600b0160008a815260200190815260200160002060030154600560008c8152602001908152602001600020600b0160008b815260200190815260200160002060040154848054600181600116156101000203166002900480601f0160208091040260200160405190810160405280929190818152602001828054600181600116156101000203166002900480156116645780601f1061163957610100808354040283529160200191611664565b820191906000526020600020905b81548152906001019060200180831161164757829003601f168201915b50505050509450838054600181600116156101000203166002900480601f0160208091040260200160405190810160405280929190818152602001828054600181600116156101000203166002900480156117005780601f106116d557610100808354040283529160200191611700565b820191906000526020600020905b8154815290600101906020018083116116e357829003601f168201915b50505050509350945094509450945094509295509295909350565b6000809054906101000a900473ffffffffffffffffffffffffffffffffffffffff1681565b60008015156003600085815260200190815260200160002060030160009054906101000a900460ff16151514151561177757600080fd5b6003600084815260200190815260200160002060000160009054906101000a900473ffffffffffffffffffffffffffffffffffffffff1673ffffffffffffffffffffffffffffffffffffffff163373ffffffffffffffffffffffffffffffffffffffff161415156117e757600080fd5b816003600085815260200190815260200160002060000160006101000a81548173ffffffffffffffffffffffffffffffffffffffff021916908373ffffffffffffffffffffffffffffffffffffffff160217905550600260008373ffffffffffffffffffffffffffffffffffffffff1673ffffffffffffffffffffffffffffffffffffffff168152602001908152602001600020805480600101828161188d9190612721565b916000526020600020900160008590919091505550600090505b600260003373ffffffffffffffffffffffffffffffffffffffff1673ffffffffffffffffffffffffffffffffffffffff168152602001908152602001600020805490508110156119b95782600260003373ffffffffffffffffffffffffffffffffffffffff1673ffffffffffffffffffffffffffffffffffffffff1681526020019081526020016000208281548110151561193e57fe5b90600052602060002090015414156119ac57600260003373ffffffffffffffffffffffffffffffffffffffff1673ffffffffffffffffffffffffffffffffffffffff1681526020019081526020016000208181548110151561199c57fe5b9060005260206000209001600090555b80806001019150506118a7565b505050565b600033905090565b60006003600083815260200190815260200160002060000160009054906101000a900473ffffffffffffffffffffffffffffffffffffffff169050919050565b611a0e61270d565b600115156003600084815260200190815260200160002060030160009054906101000a900460ff1615151415611a7b576040805190810160405280600881526020017f72656465656d65640000000000000000000000000000000000000000000000008152509050611bb5565b60006003600084815260200190815260200160002060000160009054906101000a900473ffffffffffffffffffffffffffffffffffffffff1673ffffffffffffffffffffffffffffffffffffffff161415611b0d576040805190810160405280601081526020017f7469636b6574206e6f7420666f756e64000000000000000000000000000000008152509050611bb4565b600015156003600084815260200190815260200160002060030160009054906101000a900460ff1615151415611b7a576040805190810160405280601b81526020017f7469636b657420726561647920666f7220726564656d7074696f6e00000000008152509050611bb3565b6040805190810160405280600d81526020017f756e6b6e6f776e206572726f720000000000000000000000000000000000000081525090505b5b5b919050565b60008060009054906101000a900473ffffffffffffffffffffffffffffffffffffffff1673ffffffffffffffffffffffffffffffffffffffff163373ffffffffffffffffffffffffffffffffffffffff161480611c6a575060011515600160003373ffffffffffffffffffffffffffffffffffffffff1673ffffffffffffffffffffffffffffffffffffffff16815260200190815260200160002060030160009054906101000a900460ff161515145b1515611c7557600080fd5b610140604051908101604052808a81526020013373ffffffffffffffffffffffffffffffffffffffff16815260200189815260200188815260200187815260200186815260200185815260200184815260200160008152602001838152506005600060085481526020019081526020016000206000820151816000019080519060200190611d0492919061274d565b5060208201518160010160006101000a81548173ffffffffffffffffffffffffffffffffffffffff021916908373ffffffffffffffffffffffffffffffffffffffff1602179055506040820151816002019080519060200190611d6892919061274d565b506060820151816003019080519060200190611d8592919061274d565b506080820151816004019080519060200190611da292919061274d565b5060a0820151816005015560c0820151816006015560e082015181600701556101008201518160080155610120820151816009019080519060200190611de992919061274d565b50905050600160003373ffffffffffffffffffffffffffffffffffffffff1673ffffffffffffffffffffffffffffffffffffffff1681526020019081526020016000206004018054806001018281611e419190612721565b9160005260206000209001600060085490919091505550600860008154809291906001019190505550600160085403905098975050505050505050565b600080600080611e8c61270d565b6003600087815260200190815260200160002060000160009054906101000a900473ffffffffffffffffffffffffffffffffffffffff1660036000888152602001908152602001600020600101546003600089815260200190815260200160002060020154600360008a815260200190815260200160002060030160009054906101000a900460ff16600360008b8152602001908152602001600020600401808054600181600116156101000203166002900480601f016020809104026020016040519081016040528092919081815260200182805460018160011615610100020316600290048015611fc05780601f10611f9557610100808354040283529160200191611fc0565b820191906000526020600020905b815481529060010190602001808311611fa357829003601f168201915b505050505090509450945094509450945091939590929450565b611fe2612679565b6000611fec6127cd565b60006005600089815260200190815260200160002060010160009054906101000a900473ffffffffffffffffffffffffffffffffffffffff1673ffffffffffffffffffffffffffffffffffffffff163373ffffffffffffffffffffffffffffffffffffffff1614151561205e57600080fd5b612069888888612640565b151561207457600080fd5b856040518059106120825750595b90808252806020026020018201604052509350600092505b858310156122495760a0604051908101604052808673ffffffffffffffffffffffffffffffffffffffff168152602001898152602001888152602001600015158152602001602060405190810160405280600081525081525060036000600754815260200190815260200160002060008201518160000160006101000a81548173ffffffffffffffffffffffffffffffffffffffff021916908373ffffffffffffffffffffffffffffffffffffffff160217905550602082015181600101556040820151816002015560608201518160030160006101000a81548160ff021916908315150217905550608082015181600401908051906020019061219f92919061274d565b50905050600260008673ffffffffffffffffffffffffffffffffffffffff1673ffffffffffffffffffffffffffffffffffffffff16815260200190815260200160002080548060010182816121f49190612721565b9160005260206000209001600060075490919091505550600754848481518110151561221c57fe5b9060200190602002018181525050600760008154809291906001019190505550828060010193505061209a565b60a0604051908101604052808673ffffffffffffffffffffffffffffffffffffffff16815260200189815260200188815260200187815260200185815250915085600560008a8152602001908152602001600020600b0160008981526020019081526020016000206004015403600560008a8152602001908152602001600020600b016000898152602001908152602001600020600401819055508160046000600654815260200190815260200160002060008201518160000160006101000a81548173ffffffffffffffffffffffffffffffffffffffff021916908373ffffffffffffffffffffffffffffffffffffffff160217905550602082015181600101556040820151816002015560608201518160030155608082015181600401908051906020019061237b929190612819565b50905050600090505b835181101561241757600260008673ffffffffffffffffffffffffffffffffffffffff1673ffffffffffffffffffffffffffffffffffffffff16815260200190815260200160002080548060010182816123de9190612721565b9160005260206000209001600086848151811015156123f957fe5b90602001906020020151909190915055508080600101915050612384565b6006600081548092919060010191905055505050505050505050565b61243b612679565b600260008373ffffffffffffffffffffffffffffffffffffffff1673ffffffffffffffffffffffffffffffffffffffff1681526020019081526020016000208054806020026020016040519081016040528092919081815260200182805480156124c457602002820191906000526020600020905b8154815260200190600101908083116124b0575b50505050509050919050565b6124d8612866565b60006005600089815260200190815260200160002060010160009054906101000a900473ffffffffffffffffffffffffffffffffffffffff1673ffffffffffffffffffffffffffffffffffffffff163373ffffffffffffffffffffffffffffffffffffffff1614151561254a57600080fd5b60a0604051908101604052808881526020018781526020018681526020018581526020018481525091506005600089815260200190815260200160002060080154905081600560008a8152602001908152602001600020600b01600083815260200190815260200160002060008201518160000190805190602001906125d192919061274d565b5060208201518160010190805190602001906125ee92919061274d565b5060408201518160020155606082015181600301556080820151816004015590505060056000898152602001908152602001600020600801600081548092919060010191905055505050505050505050565b60008160056000868152602001908152602001600020600b01600085815260200190815260200160002060040154101590509392505050565b602060405190810160405280600081525090565b828054600181600116156101000203166002900490600052602060002090601f016020900481019282601f106126ce57805160ff19168380011785556126fc565b828001600101855582156126fc579182015b828111156126fb5782518255916020019190600101906126e0565b5b50905061270991906128a2565b5090565b602060405190810160405280600081525090565b8154818355818115116127485781836000526020600020918201910161274791906128a2565b5b505050565b828054600181600116156101000203166002900490600052602060002090601f016020900481019282601f1061278e57805160ff19168380011785556127bc565b828001600101855582156127bc579182015b828111156127bb5782518255916020019190600101906127a0565b5b5090506127c991906128a2565b5090565b60a060405190810160405280600073ffffffffffffffffffffffffffffffffffffffff1681526020016000815260200160008152602001600081526020016128136128c7565b81525090565b828054828255906000526020600020908101928215612855579160200282015b82811115612854578251825591602001919060010190612839565b5b50905061286291906128a2565b5090565b60a06040519081016040528061287a6128db565b81526020016128876128db565b81526020016000815260200160008152602001600081525090565b6128c491905b808211156128c05760008160009055506001016128a8565b5090565b90565b602060405190810160405280600081525090565b6020604051908101604052806000815250905600a165627a7a72305820192825019be590ee960e5b4c80150dc45b30393457218d3cea00c2ebd7446c0b0029",
  "source": "pragma solidity ^0.4.17;\n\n// This is a contract for securely issuing and redeeming event tickets.\n// State is as follows:\n// issuers: [{\n//\taddress: String,\n//\tname: String,\n//  website: String,\n// }],\n// events: [{     array of event records\n//\tartist: String,\n//  location: String,\n//  description: String,\n//  date: Int,\n//  doors: Int,\n//\tstartTime: Int,\n//  artistStarts: [{\n//\t\tname: String,\n//\t\ttime: Int,\n//  }],\n//\tticketSets: [{\n//\t\tdescription: String,\n//\t\tprice: Double,\n//\t\tresalePrice: Double,\n//\t\trows: [ [rowIndex]: numberOfSeats ]\n//\t\tsold: [ [rowIndex]: seatNumber ]]\n//\t\tsales: [ {\n//\t\t\trowIndex: String,\n//\t\t\tseatNumber: Number,\n//\t\t\tbuyer: String,\n//\t\t\tredeemed: bool,\n//\t\t\tproofOfRedemption: String,\n//\t\t}]\n//\t}]\n//  \n// }]\n\n\ncontract EventTickets {\t\t\t\t\t// optional functions marked with a *\n\t// define data structures\n\tstruct Sale {\n\t\taddress recipient;\n\t\tuint eventId;\n\t\tuint ticketSetId;\n\t\tuint quantity;\n\t\tuint[] ticketIds;\n\t}\n\t\n\tstruct Issuer {\n\t\tstring name;\n\t\tstring website;\n\t\tEvent[] events;\n\t\tbool enabled;\n\t\tuint[] eventIds;\n\t}\n\t\n\tstruct TicketSet {\n\t\tstring slug;\n\t\tstring description;\n\t\tuint price;\n\t\tuint resalePrice;\n\t\tuint numberRemaining;\n\t\tmapping(address => Sale[]) sales;\n\t}\n\t\n\tstruct Ticket {\n\t\taddress ticketowner;\n\t\tuint eventId;\n\t\tuint ticketSetId;\n\t\tbool redeemed;\n\t\tstring userPic;\n\t}\n\t\n\tstruct Event {\n\t\tstring slug;\n\t\taddress issuer;\n\t\tstring artist;\n\t\tstring location;\n\t\tstring description;\n\t\tuint date;\n\t\tuint doors;\n\t\tuint startTime;\n\t\tuint numberOfTicketSets;\n\t\tstring photoUrl;\n\t\tmapping(string => uint) artistStarts;\n\t\tmapping(uint => TicketSet) ticketSets;\n\t}\n\t\n\taddress public owner = 0x90F8bf6A479f320ead074411a4B0e7944Ea8c9C1;\n\tmapping(address => Issuer) issuers;\n\tmapping(address => uint[]) ticketHolders;\n\tmapping(uint => Ticket) public tickets;\n\tmapping(uint => Sale) sales;\n\tmapping(uint => Event) events;\n\t\n\tuint nextSaleId;\n\tuint nextTicketId;\n\tuint nextEventId;\n\t\n\t\n\t\n\t// addIssuer\n\tfunction addIssuer(address newIssuer) public {\n\t\trequire((msg.sender == owner) || (issuers[msg.sender].enabled == true));\n\t\tissuers[newIssuer].enabled = true;\n\t}\n\t\n\t// defineEvent\n\tfunction defineEvent (string slug, string artist, string location, \n\t\t\t              string description, uint date, uint doors, \n\t\t\t              uint startTime, string photoUrl) public returns (uint eventId) {\n\t\trequire((msg.sender == owner) || (issuers[msg.sender].enabled == true));\n\t\tevents[nextEventId] = Event({\n\t\t\tslug: slug,\n\t\t\tissuer: msg.sender,\n\t\t\tartist: artist,\n\t\t\tlocation: location,\n\t\t\tdescription: description,\n\t\t\tdate: date,\n\t\t\tdoors: doors,\n\t\t\tstartTime: startTime,\n\t\t\tnumberOfTicketSets: 0,\n\t\t\tphotoUrl: photoUrl\n\t\t});\n\t\tissuers[msg.sender].eventIds.push(nextEventId);\n\t\tnextEventId++;\n\t\treturn nextEventId-1;\n\t}\n\t\n\t// defineTicketSet\n\tfunction defineTicketSet (uint eventId, string ticketSetSlug, string description, uint price, uint resalePrice, \n\t\t\t\t\t\t\t  uint quantity) public {\n\t\trequire((msg.sender == events[eventId].issuer));\n\t\tTicketSet memory newSet = TicketSet({\n\t\t\tslug: ticketSetSlug,\n\t\t\tdescription: description,\n\t\t\tprice: price,\n\t\t\tresalePrice: resalePrice,\n\t\t\tnumberRemaining: quantity\n\t\t});\n\t\t\n\t\tuint nextSet = events[eventId].numberOfTicketSets;\n\t\tevents[eventId].ticketSets[nextSet] = newSet;\n\t\tevents[eventId].numberOfTicketSets++;\n\t\t//events[eventSlug].ticketSetSlugs = events[eventSlug].ticketSets[]\n\t\t//events[eventSlug].ticketSets[ticketSetSlug] = newSet;\n\t}\n\t\n\t// editEvent*\n\t\n\t// sellTicketToRecipient\n\tfunction sellTicketsToRecipient (uint eventId, uint ticketSetId, \n\t\t\t\t\t\t\t\t\t uint numberOfSeats, address recipient) public {\n\t\trequire((msg.sender == events[eventId].issuer));\t\t\t\t// seller is issuer\n\t\trequire((checkAvailability(eventId, ticketSetId, numberOfSeats))); // seats are available\n\n\t\tuint[] memory ticketsCreated = new uint[](numberOfSeats);\n\t\t\n\t\t// create tickets\n\t\tfor (uint i = 0; i < numberOfSeats; i++) {\n\t\t\ttickets[nextTicketId] = Ticket({\n\t\t\t\tredeemed: false,\n\t\t\t\tticketowner: recipient,\n\t\t\t\teventId: eventId,\n\t\t\t\tticketSetId: ticketSetId,\n\t\t\t\tuserPic: \"\"\n\t\t\t});\n\t\t\tticketHolders[recipient].push(nextTicketId);\n\t\t\tticketsCreated[i] = nextTicketId;\n\t\t\tnextTicketId++;\n\t\t}\n\t\t\n\t\tSale memory newSale = Sale({\n\t\t\trecipient: recipient,\n\t\t\teventId: eventId,\n\t\t\tticketSetId: ticketSetId,\n\t\t\tquantity: numberOfSeats,\n\t\t\tticketIds: ticketsCreated\t\n\t\t});\n\t\t\n\t\t// decrement available seats\n\t\tevents[eventId].ticketSets[ticketSetId].numberRemaining = events[eventId].ticketSets[ticketSetId].numberRemaining - numberOfSeats;\n\t\t// record sale in sales\n\t\tsales[nextSaleId] = newSale;\n\t\t// map tickets to recipient\n\t\tfor (uint g = 0; g < ticketsCreated.length; g++) {\n\t\t\tticketHolders[recipient].push(ticketsCreated[g]);\n\t\t}\n\n\t\tnextSaleId++;\n\n\t}\n\t\n\t// redeemTicket\n\tfunction redeemTicket (uint ticketId, string userPicUrl) public {\n\t\trequire((msg.sender == tickets[ticketId].ticketowner));\n\t\trequire((tickets[ticketId].redeemed == false));\n\t\ttickets[ticketId].redeemed = true;\n\t\ttickets[ticketId].userPic = userPicUrl;\n\t}\n\t\n\t// reassignTicketToNewHolder\n\tfunction reassignTicketToNewHolder(uint ticketId, address recipient) public {\n\t\trequire((tickets[ticketId].redeemed == false));\n\t\trequire((msg.sender == tickets[ticketId].ticketowner));\n\t\ttickets[ticketId].ticketowner = recipient;\n\t\t// add ticketId to new owner's array\n\t\tticketHolders[recipient].push(ticketId);\n\t\t// remove ticketId from old owner's array\n\t\tfor (uint i = 0; i < ticketHolders[msg.sender].length; i++ ) {\n\t\t\tif (ticketHolders[msg.sender][i] == ticketId) {\n\t\t\t\tdelete ticketHolders[msg.sender][i];\n\t\t\t}\n\t\t}\n\t}\n\t\n\tfunction getTicketIdsByHolderAddress(address holder) public view returns (uint[] ticketIds) {\n\t\tticketIds = ticketHolders[holder];\n\t}\n\t\n\tfunction getTicketStateById(uint ticketId) public view returns (string status) {\n\t\tif (tickets[ticketId].redeemed == true) {\n\t\t\tstatus = \"redeemed\";\n\t\t}\n\t\telse if (tickets[ticketId].ticketowner == 0) {\n\t\t\tstatus = \"ticket not found\";\n\t\t}\n\t\telse if (tickets[ticketId].redeemed == false) {\n\t\t\tstatus = \"ticket ready for redemption\";\n\t\t}\n\t\telse {\n\t\t\tstatus = \"unknown error\";\n\t\t}\n\t}\n\t\n\tfunction getTicketInfoById(uint ticketId) public view returns (address, uint, uint, bool, string) {\n\t\treturn(tickets[ticketId].ticketowner, tickets[ticketId].eventId, tickets[ticketId].ticketSetId, tickets[ticketId].redeemed, tickets[ticketId].userPic);\n\t}\n\t\n\tfunction isIssuer() public view returns (bool isthey) {\n\t\tif ((issuers[msg.sender].enabled == true) || (msg.sender == owner)) {\n\t\t\t\t\treturn true;\n\t\t}\n\t\telse {\n\t\t\treturn false;\n\t\t}\n\t}\n\t\n\tfunction getEventIdsForIssuer() public view returns (uint[] issuerEvents) {\n\t\trequire((issuers[msg.sender].enabled == true || owner == msg.sender));\n\t\tissuerEvents = issuers[msg.sender].eventIds;\n\t\t\n\t}\n\t\n\tfunction getEventDetailById(uint id) public view returns (address, string, string, string, uint, uint, string) {\n\t\treturn (events[id].issuer, events[id].artist, events[id].location, events[id].description, events[id].doors, events[id].startTime, events[id].photoUrl);\n\t}\n\t\n\tfunction getTicketSetInfoById(uint eventId, uint ticketSetId) public view returns (string, string, uint, uint, uint) {\n\t\treturn (events[eventId].ticketSets[ticketSetId].slug,\n\t\t\t\tevents[eventId].ticketSets[ticketSetId].description,\n\t\t\t\tevents[eventId].ticketSets[ticketSetId].price,\n\t\t\t\tevents[eventId].ticketSets[ticketSetId].resalePrice,\n\t\t\t\tevents[eventId].ticketSets[ticketSetId].numberRemaining);\n\t}\n\t\n\tfunction getTicketOwnerById(uint ticketId) public view returns (address ticketOwner) {\n\t\tticketOwner = tickets[ticketId].ticketowner;\n\t}\n\t\n\tfunction checkAvailability (uint eventId, uint ticketSetId, uint numberOfSeats) public view returns (bool available) {\n\t\tavailable = events[eventId].ticketSets[ticketSetId].numberRemaining >= numberOfSeats;\n\t}\n\n\tfunction confirmMessageSender() public view returns (address sender) {\n\t\tsender = msg.sender;\n\t}\n}\n",
  "sourcePath": "/home/ec2-user/environment/smartcontracts/twebpack/contracts/EventTickets.sol",
  "compiler": {
    "name": "solc",
    "version": "0.4.18+commit.9cf6e910.Emscripten.clang"
  },
  "schemaVersion": "1.0.1",
  "updatedAt": "2018-01-22T23:42:09.083Z"
}